:020000040000FA
:100000000C9463000C948B000C948B000C948B006C
:100010000C948B000C948B000C948B000C948B0034
:100020000C948B000C948B000C948B000C948B0024
:100030000C948B000C948B000C948B000C948B0014
:100040000C947F040C948B000C94EF040C94C90462
:100050000C948B000C948B000C948B000C948B00F4
:100060000C948B000C948B000A0B0C0D0E0F0000EF
:100070000008000201000003040700000000000067
:10008000000000000000250028002B0000000000F8
:10009000240027002A0004040404040404040202C7
:1000A00002020202030303030303010204081020F7
:1000B0004080010204081020010204081020000101
:1000C00002030405210511241FBECFEFD8E0DEBFD7
:1000D000CDBF22E0A4ECB1E001C01D92A439B2076B
:1000E000E1F711E0A0E0B1E0E2E3F0E102C0059049
:1000F0000D92A43CB107D9F710E0C3E6D0E004C0EC
:100100002197FE010E940808C236D107C9F70E9454
:1001100071050C9417080C94000090E0FC01E65562
:10012000FF4F24918A569F4FFC018491882399F0B8
:1001300090E0880F991FFC01E457FF4FA591B491FF
:10014000FC01EE57FF4F859194918FB7F894EC9195
:10015000E22BEC938FBF089590E0FC01E259FF4F32
:100160002491FC01E655FF4F3491FC01EA56FF4F04
:10017000E491EE23C9F0222339F0233001F1A8F4F1
:10018000213019F1223029F1F0E0EE0FFF1FEE5778
:10019000FF4FA591B4918FB7F894EC91611126C0EF
:1001A00030953E233C938FBF08952730A9F0283027
:1001B000C9F0243049F7809180008F7D03C0809181
:1001C00080008F7780938000DFCF84B58F7784BDE8
:1001D000DBCF84B58F7DFBCF8091B0008F7780938C
:1001E000B000D2CF8091B0008F7DF9CF3E2BDACF17
:1001F000682F809174020E94AC00809190029091CF
:1002000091028230910538F0880F991F880F991F4D
:1002100005970197F1F7089581E00C94F800682F95
:10022000809173029091740289130C94AC0008952C
:100230003FB7F8948091C9019091CA01A091CB0178
:10024000B091CC0126B5A89B05C02F3F19F00196AF
:10025000A11DB11D3FBFBA2FA92F982F8827BC0120
:10026000CD01620F711D811D911D42E0660F771F48
:10027000881F991F4A95D1F70895AF92BF92CF92E8
:10028000DF92EF92FF920F931F93CF93DF936C0156
:100290007B018B01040F151FEB015E01AE18BF0837
:1002A000C017D10759F06991D601ED91FC910190E9
:1002B000F081E02DC6010995892B79F7C501DF9101
:1002C000CF911F910F91FF90EF90DF90CF90BF9053
:1002D000AF900895FC01538D448D252F30E0842F7D
:1002E00090E0821B930B541710F0CF96089501975E
:1002F0000895FC01918D828D981761F0A28DAE0F4B
:10030000BF2FB11D5D968C91928D9F5F9F73928FD1
:1003100090E008958FEF9FEF0895FC01918D828DFD
:10032000981731F0828DE80FF11D858D90E00895CA
:100330008FEF9FEF0895FC01918D228D892F90E022
:10034000805C9F4F821B91098F739927089583EDDD
:1003500091E00E949B0121E0892B09F420E0822F8B
:10036000089580E090E0892B29F00E94A701811177
:100370000C9400000895FC01A48DA80FB92FB11DA5
:10038000A35ABF4F2C91848D90E001968F739927CB
:10039000848FA689B7892C93A089B1898C918370A9
:1003A00080648C93938D848D981306C00288F389A2
:1003B000E02D80818F7D80830895EF92FF920F93CF
:1003C0001F93CF93DF93EC0181E0888F9B8D8C8D01
:1003D00098131AC0E889F989808185FF15C09FB7F5
:1003E000F894EE89FF896083E889F98980818370B8
:1003F000806480839FBF81E090E0DF91CF911F9167
:100400000F91FF90EF900895F62E0B8D10E00F5F87
:100410001F4F0F731127E02E8C8D8E110CC00FB65D
:1004200007FCFACFE889F989808185FFF5CFCE01F5
:100430000E94BB01F1CFEB8DEC0FFD2FF11DE35AB4
:10044000FF4FF0829FB7F8940B8FEA89FB89808178
:100450008062CFCFCF93DF93EC01888D8823B9F0F2
:10046000AA89BB89E889F9898C9185FD03C08081BF
:1004700086FD0DC00FB607FCF7CF8C9185FFF2CF3C
:10048000808185FFEDCFCE010E94BB01E9CFDF91D6
:10049000CF9108958EBD00000DB407FEFDCF8EB53F
:1004A0000895FC0101900020E9F73197AF01481B46
:1004B000590BBC0183ED91E00C943D018F929F920A
:1004C000AF92BF920F931F93CF93DF93CDB7DEB759
:1004D000A1970FB6F894DEBF0FBECDBF19A2423070
:1004E00008F44AE08E010F5D1F4F842E912CB12C31
:1004F000A12CA50194010E94E607E62FB901CA01CB
:10050000EA30F4F4E05DD801EE938D01232B242B27
:10051000252B79F790E080E0109719F0CD010E942B
:100520005102A1960FB6F894DEBF0FBECDBFDF918A
:10053000CF911F910F91BF90AF909F908F90089592
:10054000E95CE1CFCF92DF92EF92FF92CF93DF93FE
:100550006B017C016DE283ED91E00E94DD01EC0115
:1005600066277727CB016C197D098E099F094AE020
:100570000E945E028C0F9D1FDF91CF91FF90EF9044
:10058000DF90CF900895CF93DF930E945102EC014A
:1005900081E291E00E9451028C0F9D1FDF91CF916B
:1005A00008950F931F930091750210917602209188
:1005B00077023091780240E052E16AE770E080E033
:1005C000041715072607370740F476956795579562
:1005D00047958F5F8630A1F787E0982F906A9695B0
:1005E000809581709CBD8DBD80E01F910F910C9412
:1005F000F800CF93DF93D82FC62F0E94D1028D2F02
:1006000080620E944A02809379028C2F0E944A02E3
:10061000DF91CF910C940C016091850261FD0AC0BD
:1006200062606093850280E00E94F9028BE19EE4A3
:100630000197F1F70895CF93C82F0E94D1028C2F14
:100640000E944A02809379028FEF0E944A02C82FCB
:100650000E940C018C2FCF910895CF9386E00E94C9
:100660001B03C82FC77D85E590E0A0E0B0E0809334
:100670008C0290938D02A0938E02B0938F026C2F08
:1006800086E00E94F90286E00E941B0391E0C813F5
:1006900090E0892FCF910895FF920F931F93CF93EE
:1006A000DF93C82FF62E072F142F0E94D1028C2F14
:1006B00080620E944A0280937902CF2DD02F115080
:1006C00020F089910E944A02FACFDF91CF911F91C9
:1006D0000F91FF900C940C010E940C036091850215
:1006E00061606093850280E00E94F90260E787E024
:1006F0000E94F90281E00E940F0180918702882305
:1007000039F0409189026BE772E08AE00C944C0367
:1007100082E00E941B03EEEBF0E0E49121E030E088
:1007200001C0220FEA95EAF72095622F682382E044
:100730000E94F902109287020895CF93C82F0E9459
:10074000D1028C2F0E944A0280937902CF910C949F
:100750000C0181EE0E949D0380917902089580E052
:100760000E940F0180918C0290918D028230910540
:1007700038F0880F991F880F991F05970197F1F797
:100780008091880281110E94A903609185026E7F89
:100790006093850280E00E94F9024091890260E83E
:1007A00072E08AE00E944C0382E00E941B03EEEBA1
:1007B000F0E0E49161E070E001C0660FEA95EAF7CD
:1007C000682B82E00C94F902CF92DF92EF92FF92B5
:1007D0000F931F93CF93DF9380918A02C0E0D2E002
:1007E000811107C0C0917A02DC2FC33008F0D2E03B
:1007F000CD1B0E94D10280EA0E944A0280937902B6
:1008000001ED11E0D15030F0F80181918F010E948B
:100810004A02F8CFC15020F080E00E944A02FACF8D
:100820000E940C0181E00E940F018FB7F894C090E4
:10083000CD01D090CE01E090CF01F090D0018FBFDC
:100840008FEF0E949D0380917902807309F52FB785
:10085000F8948091CD019091CE01A091CF01B091FB
:10086000D0012FBF8C199D09AE09BF0980369105B3
:10087000A105B10528F381E080938B0280E0DF9130
:10088000CF911F910F91FF90EF90DF90CF9008953F
:1008900080E00E940F0160E787E00E94F9028091EA
:1008A000790284FF03C00E94A903E8CF81E0E7CF6B
:1008B000883781F482E090E0611102C083E090E02B
:1008C0009093D2018093D1010E94AF030E94E40370
:1008D0000C946C038937C1F784E090E06111F0CF8C
:1008E00085E090E0EDCF0E94D10280E50E944A02AF
:1008F0008093790283E70E944A020C940C011F92B4
:100900000F920FB60F9211242F933F938F939F93C3
:10091000AF93BF938091CD019091CE01A091CF0173
:10092000B091D0013091C80123E0230F2D3758F545
:100930000196A11DB11D2093C8018093CD01909314
:10094000CE01A093CF01B093D0018091C9019091C5
:10095000CA01A091CB01B091CC010196A11DB11D9E
:100960008093C9019093CA01A093CB01B093CC01AD
:10097000BF91AF919F918F913F912F910F900FBE9B
:100980000F901F90189526E8230F0296A11DB11D08
:10099000D2CF1F920F920FB60F9211242F933F9335
:1009A0004F935F936F937F938F939F93AF93BF9377
:1009B000EF93FF9383ED91E00E94BB01FF91EF91D4
:1009C000BF91AF919F918F917F916F915F914F9167
:1009D0003F912F910F900FBE0F901F9018951F926F
:1009E0000F920FB60F9211242F938F939F93EF9333
:1009F000FF93E091E301F091E4018081E091E9014E
:100A0000F091EA0182FD1BC090818091EC018F5F23
:100A10008F732091ED01821741F0E091EC01F0E03D
:100A2000ED52FE4F958F8093EC01FF91EF919F91D6
:100A30008F912F910F900FBE0F901F90189580816E
:100A4000F4CFE3EDF1E01382128288EE93E0A0E0B0
:100A5000B0E084839583A683B78383E191E091839B
:100A6000808385EC90E09587848784EC90E097877D
:100A7000868780EC90E0918B808B81EC90E0938B6B
:100A8000828B82EC90E0958B848B86EC90E0978B48
:100A9000868B118E128E138E148EE1E7F2E089E0C0
:100AA00082838AE0838380E896E9A8E9B0E08483C2
:100AB0009583A683B78380E28187158A168A85E0AD
:100AC000808F81E0818F128E85E090E0A0E0B0E021
:100AD000878F90A3A1A3B2A380E792E09183808344
:100AE0000895789484B5826084BD84B5816084BDA6
:100AF00085B5826085BD85B5816085BD80916E00BC
:100B0000816080936E0010928100809181008260EC
:100B10008093810080918100816080938100809129
:100B200080008160809380008091B1008460809318
:100B3000B1008091B00081608093B00080917A0014
:100B4000846080937A0080917A00826080937A003A
:100B500080917A00816080937A0080917A00806829
:100B600080937A001092C100E091E301F091E401DA
:100B700082E08083E091DF01F091E0011082E0915A
:100B8000E101F091E20180E180831092EB01E091BC
:100B9000E701F091E80186E08083E091E501F091C2
:100BA000E601808180618083E091E501F091E601BA
:100BB000808188608083E091E501F091E601808189
:100BC00080688083E091E501F091E60180818F7D6E
:100BD0008083CFB7F8948091C401811124C0E0EAEA
:100BE000F0E08491E4EBF0E09491E82FF0E0EE0F78
:100BF000FF1FE457FF4FA591B491EC91E92321F435
:100C000061E08AE00E94AC008AE00E948D008CB511
:100C100080618CBD8CB580648CBD8DE00E948D00A0
:100C20008BE00E948D008091C4018F5F8093C4018E
:100C3000CFBF809173028F3F09F48FC090917402EF
:100C40009F3F09F48AC0891731F00E948D0080917E
:100C500074020E948D0080E00E940F0181E00E94DA
:100C6000F8000E9418014B015C0145E0C42ED12C14
:100C7000E12CF12C0E941801681979098A099B0955
:100C8000683E734081059105A8F321E0C21AD1089E
:100C9000E108F10888EE880E83E0981EA11CB11CC3
:100CA000C114D104E104F10429F76FE584E00E9446
:100CB000F9020E942D038DE10E941B03C82F0E94A0
:100CC00073048DE10E941B0391E0C81390E09093A0
:100CD0008602882341F0C81302C00E94730460E0BA
:100CE0008DE10E94F9021092880260E08CE10E947E
:100CF000F90210928A026FE381E00E94F90263E038
:100D000082E00E94F90280E280937A02C1E1609160
:100D10007A028C2F0E94F902CF5FC731C1F763E0DE
:100D200083E00E94F90285E0809389026CE40E94CE
:100D3000F90260E787E00E94F90282EE0E949D03BB
:100D40000E94A9036CE080E00E94F90280E00E940A
:100D50001B03809385020E940C0386E00E941B0304
:100D6000887F682F636086E00E94F9020E942D034D
:100D70006CE485E00E94F9024091890269E071E02B
:100D80008AE00E944C034091890269E071E080E1B1
:100D90000E944C034091890250E069E071E080E8D4
:100DA00092E00E940E08E9E6F0E084914091890209
:100DB00063E071E00E944C0382E00E941B03EFEBB2
:100DC000F0E0E49161E070E001C0660FEA95EAF7B7
:100DD000682B82E00E94F9020E946C0384E291E099
:100DE0000E94C30284E591E00E94C30277247394B9
:100DF00000E010E0EE24E394F12C27E0C22ED12C89
:100E000036E0A32EB12C83ED91E00E949B01892B4B
:100E100081F083ED91E00E9479018E3609F47AC069
:100E20000CF049C08F3409F46FC07CF5803309F4AD
:100E30006BC087E10E941B0380FD87C08091020187
:100E4000882309F482C080918A02C0E0D3E0811136
:100E500007C0C0917A02DC2FC43008F0D3E0CD1B6C
:100E60000E94D10281E60E944A028093790285ECB9
:100E7000882E81E0982ED15008F453C08FEF0E9445
:100E80004A02F40181934F01F6CF823551F18C363D
:100E900081F6809100018725809300018823E1F18C
:100EA000B092D201A092D1010E94AF030E94E4034C
:100EB0000E946C03BECF8237A1F05CF48F3621F123
:100EC00061E0803709F0B5CF809101010E9458049C
:100ED000B0CF883719F0893709F0ABCF8093010183
:100EE000A8CFF092D201E092D10188E791E00E9470
:100EF000C3020E94AF030E94E4030E946C0384E5D6
:100F000091E00E94C30295CF8091020187258093D2
:100F100002018FCF60E0D8CFD092D201C092D10130
:100F2000C3CFC15020F08FEF0E944A02FACF0E9437
:100F30000C0160E487E00E94F9028091C7018111F1
:100F400010C085E991E00E9451020115110509F4D4
:100F50005ACF0E94A701882309F455CF0E940000B0
:100F600052CF86EA91E00E9451026091C70170E081
:100F700090E080E04AE00E945E0286EB91E00E94F1
:100F800051026091C501062E000C770B880B990B5E
:100F900097FF14C00E94A2028DEB91E00E945102C3
:100FA0006091C601062E000C770B880B990B97FFFA
:100FB00009C00E94A20281E291E0C5CF4AE00E94EE
:100FC0005E02EACF4AE00E945E02F5CFA1E21A2E4D
:100FD000AA1BBB1BFD010DC0AA1FBB1FEE1FFF1FDD
:100FE000A217B307E407F50720F0A21BB30BE40B2D
:100FF000F50B661F771F881F991F1A9469F7609574
:101000007095809590959B01AC01BD01CF0108952D
:10101000EE0FFF1F0590F491E02D0994FB01DC0118
:1010200002C001900D9241505040D8F70895F894B5
:10103000FFCF0178014F5554303100494E303031E7
:101040000000000000DD013D016A012A029B0179D8
:10105000018D010D0A005B4F55545055545D3A20E7
:1010600053797374656D20696E697469616C697A0E
:1010700065642120546F20726573657420747970E3
:101080006520277227005B4F55545055545D3A2018
:101090005479706520276F2720746F20746F6767FD
:1010A0006C65206F7574707574005B434F4D4D41D6
:1010B0004E445D3A20524553455420494E495449C7
:1010C000414C495A4544005B4F55545055545D3A84
:1010D00020484F4D494E47005B4F55545055545D85
:1010E0003A206D6F64653D002074696C743D00208A
:0610F00070616E3D00007E
:107E0000112484B714BE81FFF0D085E080938100F7
:107E100082E08093C00088E18093C10086E0809377
:107E2000C20080E18093C4008EE0C9D0259A86E02C
:107E300020E33CEF91E0309385002093840096BBD3
:107E4000B09BFECF1D9AA8958150A9F7CC24DD24C4
:107E500088248394B5E0AB2EA1E19A2EF3E0BF2EE7
:107E6000A2D0813461F49FD0082FAFD0023811F036
:107E7000013811F484E001C083E08DD089C08234E0
:107E800011F484E103C0853419F485E0A6D080C0E4
:107E9000853579F488D0E82EFF2485D0082F10E0AE
:107EA000102F00270E291F29000F111F8ED06801E7
:107EB0006FC0863521F484E090D080E0DECF843638
:107EC00009F040C070D06FD0082F6DD080E0C81688
:107ED00080E7D80618F4F601B7BEE895C0E0D1E017
:107EE00062D089930C17E1F7F0E0CF16F0E7DF06D8
:107EF00018F0F601B7BEE89568D007B600FCFDCFD4
:107F0000A601A0E0B1E02C9130E011968C91119780
:107F100090E0982F8827822B932B1296FA010C0160
:107F200087BEE89511244E5F5F4FF1E0A038BF0790
:107F300051F7F601A7BEE89507B600FCFDCF97BE46
:107F4000E89526C08437B1F42ED02DD0F82E2BD052
:107F50003CD0F601EF2C8F010F5F1F4F84911BD097
:107F6000EA94F801C1F70894C11CD11CFA94CF0C13
:107F7000D11C0EC0853739F428D08EE10CD085E9AC
:107F80000AD08FE07ACF813511F488E018D01DD067
:107F900080E101D065CF982F8091C00085FFFCCF94
:107FA0009093C60008958091C00087FFFCCF809118
:107FB000C00084FD01C0A8958091C6000895E0E648
:107FC000F0E098E1908380830895EDDF803219F02E
:107FD00088E0F5DFFFCF84E1DECF1F93182FE3DFCA
:107FE0001150E9F7F2DF1F91089580E0E8DFEE27F6
:047FF000FF270994CA
:027FFE00040479
:00000001FF
